{
  "contractName": "TodoList",
  "abi": [
    {
      "constant": true,
      "inputs": [
        {
          "name": "",
          "type": "uint256"
        }
      ],
      "name": "userAccts",
      "outputs": [
        {
          "name": "",
          "type": "address"
        }
      ],
      "payable": false,
      "stateMutability": "view",
      "type": "function"
    },
    {
      "constant": false,
      "inputs": [
        {
          "name": "_name",
          "type": "string"
        }
      ],
      "name": "createAccount",
      "outputs": [],
      "payable": false,
      "stateMutability": "nonpayable",
      "type": "function"
    },
    {
      "constant": false,
      "inputs": [
        {
          "name": "_todo",
          "type": "bytes32"
        }
      ],
      "name": "addTodo",
      "outputs": [
        {
          "name": "",
          "type": "uint256"
        },
        {
          "name": "",
          "type": "string"
        },
        {
          "name": "",
          "type": "uint256[]"
        },
        {
          "name": "",
          "type": "bytes32[]"
        },
        {
          "name": "",
          "type": "bool[]"
        }
      ],
      "payable": false,
      "stateMutability": "nonpayable",
      "type": "function"
    },
    {
      "constant": true,
      "inputs": [
        {
          "name": "_account",
          "type": "address"
        }
      ],
      "name": "getMyData",
      "outputs": [
        {
          "name": "",
          "type": "uint256[]"
        },
        {
          "name": "",
          "type": "bytes32[]"
        },
        {
          "name": "",
          "type": "bool[]"
        },
        {
          "name": "",
          "type": "bytes32[]"
        },
        {
          "name": "",
          "type": "bool[]"
        }
      ],
      "payable": false,
      "stateMutability": "view",
      "type": "function"
    },
    {
      "constant": true,
      "inputs": [],
      "name": "getAllUsers",
      "outputs": [
        {
          "name": "",
          "type": "address[]"
        }
      ],
      "payable": false,
      "stateMutability": "view",
      "type": "function"
    }
  ],
  "bytecode": "0x60606040526001600255341561001457600080fd5b610941806100236000396000f30060606040526004361061006d576000357c0100000000000000000000000000000000000000000000000000000000900463ffffffff1680630ab2bb1314610072578063298daf5b146100d5578063da2f646014610132578063e1af626414610159578063e2842d7914610277575b600080fd5b341561007d57600080fd5b61009360048080359060200190919050506102e1565b604051808273ffffffffffffffffffffffffffffffffffffffff1673ffffffffffffffffffffffffffffffffffffffff16815260200191505060405180910390f35b34156100e057600080fd5b610130600480803590602001908201803590602001908080601f01602080910402602001604051908101604052809392919081815260200183838082843782019150505050505091905050610320565b005b341561013d57600080fd5b610157600480803560001916906020019091905050610459565b005b341561016457600080fd5b610190600480803573ffffffffffffffffffffffffffffffffffffffff16906020019091905050610550565b60405180806020018060200180602001848103845287818151815260200191508051906020019060200280838360005b838110156101db5780820151818401526020810190506101c0565b50505050905001848103835286818151815260200191508051906020019060200280838360005b8381101561021d578082015181840152602081019050610202565b50505050905001848103825285818151815260200191508051906020019060200280838360005b8381101561025f578082015181840152602081019050610244565b50505050905001965050505050505060405180910390f35b341561028257600080fd5b61028a610739565b6040518080602001828103825283818151815260200191508051906020019060200280838360005b838110156102cd5780820151818401526020810190506102b2565b505050509050019250505060405180910390f35b6001818154811015156102f057fe5b90600052602060002090016000915054906101000a900473ffffffffffffffffffffffffffffffffffffffff1681565b6000806000803373ffffffffffffffffffffffffffffffffffffffff1673ffffffffffffffffffffffffffffffffffffffff1681526020019081526020016000206001015414151561037157610455565b6000803373ffffffffffffffffffffffffffffffffffffffff1673ffffffffffffffffffffffffffffffffffffffff1681526020019081526020016000209050818160000190805190602001906103c99291906107cd565b5060008160020181905550600254816001018190555060026000815480929190600101919050555060018054806001018281610405919061084d565b9160005260206000209001600033909190916101000a81548173ffffffffffffffffffffffffffffffffffffffff021916908373ffffffffffffffffffffffffffffffffffffffff160217905550505b5050565b6000610463610879565b6000803373ffffffffffffffffffffffffffffffffffffffff1673ffffffffffffffffffffffffffffffffffffffff168152602001908152602001600020915060606040519081016040528083600201548152602001846000191681526020016000151581525090508082600301600084600201548152602001908152602001600020600082015181600001556020820151816001019060001916905560408201518160020160006101000a81548160ff02191690831515021790555090505082816020019060001916908160001916815250508160020160008154809291906001019190505550505050565b6105586108a0565b6105606108b4565b6105686108c8565b6000806105736108a0565b61057b6108c8565b6105836108b4565b600061058d610879565b6000808c73ffffffffffffffffffffffffffffffffffffffff1673ffffffffffffffffffffffffffffffffffffffff168152602001908152602001600020965086600201549550856040518059106105e25750595b90808252806020026020018201604052509450856040518059106106035750595b90808252806020026020018201604052509350856040518059106106245750595b90808252806020026020018201604052509250600091505b86600201548210156107225786600301600083815260200190815260200160002060606040519081016040529081600082015481526020016001820154600019166000191681526020016002820160009054906101000a900460ff1615151515815250509050806000015185838151811015156106b557fe5b9060200190602002018181525050806020015183838151811015156106d657fe5b9060200190602002019060001916908160001916815250508060400151848381518110151561070157fe5b9060200190602002019015159081151581525050818060010192505061063c565b848385995099509950505050505050509193909250565b6107416108dc565b60018054806020026020016040519081016040528092919081815260200182805480156107c357602002820191906000526020600020905b8160009054906101000a900473ffffffffffffffffffffffffffffffffffffffff1673ffffffffffffffffffffffffffffffffffffffff1681526020019060010190808311610779575b5050505050905090565b828054600181600116156101000203166002900490600052602060002090601f016020900481019282601f1061080e57805160ff191683800117855561083c565b8280016001018555821561083c579182015b8281111561083b578251825591602001919060010190610820565b5b50905061084991906108f0565b5090565b8154818355818115116108745781836000526020600020918201910161087391906108f0565b5b505050565b60606040519081016040528060008152602001600080191681526020016000151581525090565b602060405190810160405280600081525090565b602060405190810160405280600081525090565b602060405190810160405280600081525090565b602060405190810160405280600081525090565b61091291905b8082111561090e5760008160009055506001016108f6565b5090565b905600a165627a7a72305820e446d4ece1df1fbe549f8ecd5df5c9ce1f9e83b4adc66ac02d4b3343c8d5c8be0029",
  "source": "pragma solidity ^0.4.17;\n\n\ncontract TodoList {\n     struct Todo {\n        uint id;\n        bytes32 name;\n        bool completed;\n    }\n    \n    struct User {\n        string name;\n        uint id;\n        uint todoCount;\n        mapping(uint => Todo) todoMap;\n    }\n\n    mapping (address => User) users;\n    address[] public userAccts;\n    uint count = 1;\n    \n    //note: setUser must be called before adding todos\n    function createAccount(string _name) public {\n        if(users[msg.sender].id != 0){\n            return; //if already set, don't set store again\n        }\n        var user = users[msg.sender];\n        user.name = _name;\n        user.todoCount = 0; //keep track of todos for each user\n        user.id = count;\n        count ++;\n        userAccts.push(msg.sender);\n    }\n    \n    function getAllUsers() view public returns (address[]) {\n        return userAccts;\n    }\n    \n    //returns user name/id and all todos associated with you account\n    function getMyData(address _account) view public returns (uint[], bytes32[], bool[]) {\n        var user = users[_account];\n        var todoCount = user.todoCount;\n        uint[] memory ids = new uint[](todoCount);\n        bool[] memory complete = new bool[](todoCount);\n        bytes32[] memory titles = new bytes32[](todoCount);\n        \n        for (uint i = 0; i < user.todoCount; i++) {\n            Todo memory currentTodo = user.todoMap[i];\n            ids[i] = currentTodo.id;\n            titles[i] = currentTodo.name;\n            complete[i] = currentTodo.completed;\n        }\n        \n        return (ids, titles, complete);\n    }\n    \n    function addTodo(bytes32 _todo) public {\n        var user = users[msg.sender];\n        Todo memory todo = Todo(user.todoCount, _todo, false);\n        user.todoMap[user.todoCount] = todo;\n        todo.name = _todo;\n        user.todoCount ++;\n    }\n}",
  "sourcePath": "/Users/m_655507/Documents/Projects/tests/react_ethereum/src/ethereum/contracts/TodoList.sol",
  "compiler": {
    "name": "solc",
    "version": "0.4.18+commit.9cf6e910.Emscripten.clang"
  },
  "schemaVersion": "1.0.1",
  "updatedAt": "2017-12-28T22:00:46.444Z"
}