{
  "contractName": "TodoList",
  "abi": [
    {
      "constant": true,
      "inputs": [
        {
          "name": "",
          "type": "uint256"
        }
      ],
      "name": "userAccts",
      "outputs": [
        {
          "name": "",
          "type": "address"
        }
      ],
      "payable": false,
      "stateMutability": "view",
      "type": "function"
    },
    {
      "constant": false,
      "inputs": [
        {
          "name": "_account",
          "type": "address"
        },
        {
          "name": "_id",
          "type": "uint256"
        }
      ],
      "name": "toggleComplete",
      "outputs": [],
      "payable": true,
      "stateMutability": "payable",
      "type": "function"
    },
    {
      "constant": false,
      "inputs": [
        {
          "name": "_name",
          "type": "string"
        }
      ],
      "name": "createAccount",
      "outputs": [
        {
          "name": "",
          "type": "uint256"
        },
        {
          "name": "",
          "type": "string"
        },
        {
          "name": "",
          "type": "uint256[]"
        },
        {
          "name": "",
          "type": "bytes32[]"
        },
        {
          "name": "",
          "type": "bool[]"
        }
      ],
      "payable": false,
      "stateMutability": "nonpayable",
      "type": "function"
    },
    {
      "constant": false,
      "inputs": [
        {
          "name": "_todo",
          "type": "bytes32"
        }
      ],
      "name": "addTodo",
      "outputs": [
        {
          "name": "",
          "type": "uint256[]"
        },
        {
          "name": "",
          "type": "bytes32[]"
        },
        {
          "name": "",
          "type": "bool[]"
        },
        {
          "name": "",
          "type": "bytes32[]"
        },
        {
          "name": "",
          "type": "bool[]"
        }
      ],
      "payable": false,
      "stateMutability": "nonpayable",
      "type": "function"
    },
    {
      "constant": true,
      "inputs": [
        {
          "name": "_account",
          "type": "address"
        }
      ],
      "name": "getMyData",
      "outputs": [
        {
          "name": "",
          "type": "uint256[]"
        },
        {
          "name": "",
          "type": "bytes32[]"
        },
        {
          "name": "",
          "type": "bool[]"
        }
      ],
      "payable": false,
      "stateMutability": "view",
      "type": "function"
    },
    {
      "constant": true,
      "inputs": [],
      "name": "getAllUsers",
      "outputs": [
        {
          "name": "",
          "type": "address[]"
        }
      ],
      "payable": false,
      "stateMutability": "view",
      "type": "function"
    }
  ],
  "bytecode": "0x60606040526001600255341561001457600080fd5b610a5d806100236000396000f300606060405260043610610078576000357c0100000000000000000000000000000000000000000000000000000000900463ffffffff1680630ab2bb131461007d5780630bb545f6146100e0578063298daf5b14610117578063da2f646014610174578063e1af62641461019b578063e2842d79146102b9575b600080fd5b341561008857600080fd5b61009e6004808035906020019091905050610323565b604051808273ffffffffffffffffffffffffffffffffffffffff1673ffffffffffffffffffffffffffffffffffffffff16815260200191505060405180910390f35b610115600480803573ffffffffffffffffffffffffffffffffffffffff16906020019091908035906020019091905050610362565b005b341561012257600080fd5b610172600480803590602001908201803590602001908080601f0160208091040260200160405190810160405280939291908181526020018383808284378201915050505050509190505061043c565b005b341561017f57600080fd5b610199600480803560001916906020019091905050610575565b005b34156101a657600080fd5b6101d2600480803573ffffffffffffffffffffffffffffffffffffffff1690602001909190505061066c565b60405180806020018060200180602001848103845287818151815260200191508051906020019060200280838360005b8381101561021d578082015181840152602081019050610202565b50505050905001848103835286818151815260200191508051906020019060200280838360005b8381101561025f578082015181840152602081019050610244565b50505050905001848103825285818151815260200191508051906020019060200280838360005b838110156102a1578082015181840152602081019050610286565b50505050905001965050505050505060405180910390f35b34156102c457600080fd5b6102cc610855565b6040518080602001828103825283818151815260200191508051906020019060200280838360005b8381101561030f5780820151818401526020810190506102f4565b505050509050019250505060405180910390f35b60018181548110151561033257fe5b90600052602060002090016000915054906101000a900473ffffffffffffffffffffffffffffffffffffffff1681565b60008060008473ffffffffffffffffffffffffffffffffffffffff1673ffffffffffffffffffffffffffffffffffffffff168152602001908152602001600020905080600301600083815260200190815260200160002060020160009054906101000a900460ff161561040557600081600301600084815260200190815260200160002060020160006101000a81548160ff021916908315150217905550610437565b600181600301600084815260200190815260200160002060020160006101000a81548160ff0219169083151502179055505b505050565b6000806000803373ffffffffffffffffffffffffffffffffffffffff1673ffffffffffffffffffffffffffffffffffffffff1681526020019081526020016000206001015414151561048d57610571565b6000803373ffffffffffffffffffffffffffffffffffffffff1673ffffffffffffffffffffffffffffffffffffffff1681526020019081526020016000209050818160000190805190602001906104e59291906108e9565b50600081600201819055506002548160010181905550600260008154809291906001019190505550600180548060010182816105219190610969565b9160005260206000209001600033909190916101000a81548173ffffffffffffffffffffffffffffffffffffffff021916908373ffffffffffffffffffffffffffffffffffffffff160217905550505b5050565b600061057f610995565b6000803373ffffffffffffffffffffffffffffffffffffffff1673ffffffffffffffffffffffffffffffffffffffff168152602001908152602001600020915060606040519081016040528083600201548152602001846000191681526020016000151581525090508082600301600084600201548152602001908152602001600020600082015181600001556020820151816001019060001916905560408201518160020160006101000a81548160ff02191690831515021790555090505082816020019060001916908160001916815250508160020160008154809291906001019190505550505050565b6106746109bc565b61067c6109d0565b6106846109e4565b60008061068f6109bc565b6106976109e4565b61069f6109d0565b60006106a9610995565b6000808c73ffffffffffffffffffffffffffffffffffffffff1673ffffffffffffffffffffffffffffffffffffffff168152602001908152602001600020965086600201549550856040518059106106fe5750595b908082528060200260200182016040525094508560405180591061071f5750595b90808252806020026020018201604052509350856040518059106107405750595b90808252806020026020018201604052509250600091505b866002015482101561083e5786600301600083815260200190815260200160002060606040519081016040529081600082015481526020016001820154600019166000191681526020016002820160009054906101000a900460ff1615151515815250509050806000015185838151811015156107d157fe5b9060200190602002018181525050806020015183838151811015156107f257fe5b9060200190602002019060001916908160001916815250508060400151848381518110151561081d57fe5b90602001906020020190151590811515815250508180600101925050610758565b848385995099509950505050505050509193909250565b61085d6109f8565b60018054806020026020016040519081016040528092919081815260200182805480156108df57602002820191906000526020600020905b8160009054906101000a900473ffffffffffffffffffffffffffffffffffffffff1673ffffffffffffffffffffffffffffffffffffffff1681526020019060010190808311610895575b5050505050905090565b828054600181600116156101000203166002900490600052602060002090601f016020900481019282601f1061092a57805160ff1916838001178555610958565b82800160010185558215610958579182015b8281111561095757825182559160200191906001019061093c565b5b5090506109659190610a0c565b5090565b8154818355818115116109905781836000526020600020918201910161098f9190610a0c565b5b505050565b60606040519081016040528060008152602001600080191681526020016000151581525090565b602060405190810160405280600081525090565b602060405190810160405280600081525090565b602060405190810160405280600081525090565b602060405190810160405280600081525090565b610a2e91905b80821115610a2a576000816000905550600101610a12565b5090565b905600a165627a7a723058203f6ec0b60cddd63df335202fd1fc403b530e16470037fe3d0020074337f4259c0029",
  "source": "pragma solidity ^0.4.17;\n\n\ncontract TodoList {\n     struct Todo {\n        uint id;\n        bytes32 name;\n        bool completed;\n    }\n    \n    struct User {\n        string name;\n        uint id;\n        uint todoCount;\n        mapping(uint => Todo) todoMap;\n    }\n\n    mapping (address => User) users;\n    address[] public userAccts;\n    uint count = 1;\n    \n    //note: setUser must be called before adding todos\n    function createAccount(string _name) public {\n        if(users[msg.sender].id != 0){\n            return; //if already set, don't set store again\n        }\n        var user = users[msg.sender];\n        user.name = _name;\n        user.todoCount = 0; //keep track of todos for each user\n        user.id = count;\n        count ++;\n        userAccts.push(msg.sender);\n    }\n    \n    function getAllUsers() view public returns (address[]) {\n        return userAccts;\n    }\n    \n    //returns user name/id and all todos associated with you account\n    function getMyData(address _account) view public returns (uint[], bytes32[], bool[]) {\n        var user = users[_account];\n        var todoCount = user.todoCount;\n        uint[] memory ids = new uint[](todoCount);\n        bool[] memory complete = new bool[](todoCount);\n        bytes32[] memory titles = new bytes32[](todoCount);\n        \n        for (uint i = 0; i < user.todoCount; i++) {\n            Todo memory currentTodo = user.todoMap[i];\n            ids[i] = currentTodo.id;\n            titles[i] = currentTodo.name;\n            complete[i] = currentTodo.completed;\n        }\n        \n        return (ids, titles, complete);\n    }\n    \n    function addTodo(bytes32 _todo) public {\n        var user = users[msg.sender];\n        Todo memory todo = Todo(user.todoCount, _todo, false);\n        user.todoMap[user.todoCount] = todo;\n        todo.name = _todo;\n        user.todoCount ++;\n    }\n    \n    function toggleComplete(address _account, uint _id) public payable {\n         var user = users[_account];\n         \n        if (user.todoMap[_id].completed) {\n                user.todoMap[_id].completed = false;\n            } else {\n                user.todoMap[_id].completed = true;\n            }\n        }\n\n}",
  "sourcePath": "/Users/m_655507/Documents/Projects/tests/react_ethereum/src/ethereum/contracts/TodoList.sol",
  "compiler": {
    "name": "solc",
    "version": "0.4.18+commit.9cf6e910.Emscripten.clang"
  },
  "schemaVersion": "1.0.1",
  "updatedAt": "2017-12-29T16:54:03.857Z"
}