{
  "contractName": "TodoList",
  "abi": [
    {
      "constant": true,
      "inputs": [
        {
          "name": "",
          "type": "uint256"
        }
      ],
      "name": "userAccts",
      "outputs": [
        {
          "name": "",
          "type": "address"
        }
      ],
      "payable": false,
      "stateMutability": "view",
      "type": "function"
    },
    {
      "constant": false,
      "inputs": [
        {
          "name": "_account",
          "type": "address"
        },
        {
          "name": "_id",
          "type": "uint256"
        }
      ],
      "name": "toggleComplete",
      "outputs": [],
      "payable": true,
      "stateMutability": "payable",
      "type": "function"
    },
    {
      "constant": false,
      "inputs": [
        {
          "name": "_account",
          "type": "address"
        },
        {
          "name": "_id",
          "type": "uint256"
        }
      ],
      "name": "deleteTodo",
      "outputs": [],
      "payable": true,
      "stateMutability": "payable",
      "type": "function"
    },
    {
      "constant": false,
      "inputs": [
        {
          "name": "_name",
          "type": "string"
        }
      ],
      "name": "createAccount",
      "outputs": [],
      "payable": false,
      "stateMutability": "nonpayable",
      "type": "function"
    },
    {
      "constant": false,
      "inputs": [
        {
          "name": "_todo",
          "type": "bytes32"
        },
        {
          "name": "_account",
          "type": "address"
        }
      ],
      "name": "addTodo",
      "outputs": [],
      "payable": false,
      "stateMutability": "nonpayable",
      "type": "function"
    },
    {
      "constant": true,
      "inputs": [
        {
          "name": "_account",
          "type": "address"
        }
      ],
      "name": "getMyData",
      "outputs": [
        {
          "name": "",
          "type": "uint256[]"
        },
        {
          "name": "",
          "type": "bytes32[]"
        },
        {
          "name": "",
          "type": "bool[]"
        }
      ],
      "payable": false,
      "stateMutability": "view",
      "type": "function"
    },
    {
      "constant": true,
      "inputs": [],
      "name": "getAllUsers",
      "outputs": [
        {
          "name": "",
          "type": "address[]"
        }
      ],
      "payable": false,
      "stateMutability": "view",
      "type": "function"
    }
  ],
  "bytecode": "0x60606040526001600255341561001457600080fd5b610bff806100236000396000f300606060405260043610610083576000357c0100000000000000000000000000000000000000000000000000000000900463ffffffff1680630ab2bb13146100885780630bb545f6146100eb5780632470eb2c14610122578063298daf5b146101595780639e5d06c1146101b6578063e1af6264146101fc578063e2842d791461031a575b600080fd5b341561009357600080fd5b6100a96004808035906020019091905050610384565b604051808273ffffffffffffffffffffffffffffffffffffffff1673ffffffffffffffffffffffffffffffffffffffff16815260200191505060405180910390f35b610120600480803573ffffffffffffffffffffffffffffffffffffffff169060200190919080359060200190919050506103c3565b005b610157600480803573ffffffffffffffffffffffffffffffffffffffff1690602001909190803590602001909190505061049d565b005b341561016457600080fd5b6101b4600480803590602001908201803590602001908080601f01602080910402602001604051908101604052809392919081815260200183838082843782019150505050505091905050610543565b005b34156101c157600080fd5b6101fa60048080356000191690602001909190803573ffffffffffffffffffffffffffffffffffffffff1690602001909190505061067c565b005b341561020757600080fd5b610233600480803573ffffffffffffffffffffffffffffffffffffffff1690602001909190505061078f565b60405180806020018060200180602001848103845287818151815260200191508051906020019060200280838360005b8381101561027e578082015181840152602081019050610263565b50505050905001848103835286818151815260200191508051906020019060200280838360005b838110156102c05780820151818401526020810190506102a5565b50505050905001848103825285818151815260200191508051906020019060200280838360005b838110156103025780820151818401526020810190506102e7565b50505050905001965050505050505060405180910390f35b341561032557600080fd5b61032d61099f565b6040518080602001828103825283818151815260200191508051906020019060200280838360005b83811015610370578082015181840152602081019050610355565b505050509050019250505060405180910390f35b60018181548110151561039357fe5b90600052602060002090016000915054906101000a900473ffffffffffffffffffffffffffffffffffffffff1681565b60008060008473ffffffffffffffffffffffffffffffffffffffff1673ffffffffffffffffffffffffffffffffffffffff168152602001908152602001600020905080600301600083815260200190815260200160002060020160009054906101000a900460ff161561046657600081600301600084815260200190815260200160002060020160006101000a81548160ff021916908315150217905550610498565b600181600301600084815260200190815260200160002060020160006101000a81548160ff0219169083151502179055505b505050565b60008060008473ffffffffffffffffffffffffffffffffffffffff1673ffffffffffffffffffffffffffffffffffffffff16815260200190815260200160002090508060040160018260040180549050038154811015156104fa57fe5b906000526020600020900154816004018381548110151561051757fe5b9060005260206000209001819055508060040180548091906001900361053d9190610a33565b50505050565b6000806000803373ffffffffffffffffffffffffffffffffffffffff1673ffffffffffffffffffffffffffffffffffffffff1681526020019081526020016000206001015414151561059457610678565b6000803373ffffffffffffffffffffffffffffffffffffffff1673ffffffffffffffffffffffffffffffffffffffff1681526020019081526020016000209050818160000190805190602001906105ec929190610a5f565b50600081600201819055506002548160010181905550600260008154809291906001019190505550600180548060010182816106289190610adf565b9160005260206000209001600033909190916101000a81548173ffffffffffffffffffffffffffffffffffffffff021916908373ffffffffffffffffffffffffffffffffffffffff160217905550505b5050565b6000610686610b0b565b6000808473ffffffffffffffffffffffffffffffffffffffff1673ffffffffffffffffffffffffffffffffffffffff168152602001908152602001600020915060606040519081016040528083600201548152602001856000191681526020016000151581525090508082600301600084600201548152602001908152602001600020600082015181600001556020820151816001019060001916905560408201518160020160006101000a81548160ff02191690831515021790555090505081600401805480600101828161075c9190610b32565b91600052602060002090016000846002015490919091505550816002016000815480929190600101919050555050505050565b610797610b5e565b61079f610b72565b6107a7610b86565b6000806107b2610b5e565b6107ba610b86565b6107c2610b72565b6000806107cd610b0b565b6000808d73ffffffffffffffffffffffffffffffffffffffff1673ffffffffffffffffffffffffffffffffffffffff168152602001908152602001600020975087600401805490509650866040518059106108255750595b90808252806020026020018201604052509550866040518059106108465750595b90808252806020026020018201604052509450866040518059106108675750595b90808252806020026020018201604052509350600092505b876004018054905083101561098757876004018381548110151561089f57fe5b906000526020600020900154915087600301600083815260200190815260200160002060606040519081016040529081600082015481526020016001820154600019166000191681526020016002820160009054906101000a900460ff16151515158152505090508060000151868481518110151561091a57fe5b90602001906020020181815250508060200151848481518110151561093b57fe5b9060200190602002019060001916908160001916815250508060400151858481518110151561096657fe5b9060200190602002019015159081151581525050828060010193505061087f565b8584869a509a509a5050505050505050509193909250565b6109a7610b9a565b6001805480602002602001604051908101604052809291908181526020018280548015610a2957602002820191906000526020600020905b8160009054906101000a900473ffffffffffffffffffffffffffffffffffffffff1673ffffffffffffffffffffffffffffffffffffffff16815260200190600101908083116109df575b5050505050905090565b815481835581811511610a5a57818360005260206000209182019101610a599190610bae565b5b505050565b828054600181600116156101000203166002900490600052602060002090601f016020900481019282601f10610aa057805160ff1916838001178555610ace565b82800160010185558215610ace579182015b82811115610acd578251825591602001919060010190610ab2565b5b509050610adb9190610bae565b5090565b815481835581811511610b0657818360005260206000209182019101610b059190610bae565b5b505050565b60606040519081016040528060008152602001600080191681526020016000151581525090565b815481835581811511610b5957818360005260206000209182019101610b589190610bae565b5b505050565b602060405190810160405280600081525090565b602060405190810160405280600081525090565b602060405190810160405280600081525090565b602060405190810160405280600081525090565b610bd091905b80821115610bcc576000816000905550600101610bb4565b5090565b905600a165627a7a7230582028cb319b003c72819c78c1c0c41e401c549f9c4a07873dd1823d3e00a73cbe880029",
  "source": "pragma solidity ^0.4.17;\n\n\ncontract TodoList {\n     struct Todo {\n        uint id;\n        bytes32 name;\n        bool completed;\n    }\n    \n    struct User {\n        string name;\n        uint id;\n        uint todoCount;\n        mapping(uint => Todo) todoMap;\n        uint[] todoListIds;\n    }\n\n    mapping (address => User) users;\n    address[] public userAccts;\n    uint count = 1;\n    \n    //note: setUser must be called before adding todos\n    function createAccount(string _name) public {\n        if (users[msg.sender].id != 0) {\n            return; //if already set, don't set store again\n        }\n        var user = users[msg.sender];\n        user.name = _name;\n        user.todoCount = 0; //keep track of todos for each user\n        user.id = count;\n        count ++;\n        userAccts.push(msg.sender);\n    }\n    \n    function getAllUsers() view public returns (address[]) {\n        return userAccts;\n    }\n    \n    //returns user name/id and all todos associated with you account\n    function getMyData(address _account) view public returns (uint[], bytes32[], bool[]) {\n        var user = users[_account];\n        var lengthOfTodoList = user.todoListIds.length;\n        uint[] memory ids = new uint[](lengthOfTodoList);\n        bool[] memory complete = new bool[](lengthOfTodoList);\n        bytes32[] memory titles = new bytes32[](lengthOfTodoList);\n        \n        for (uint i = 0; i < user.todoListIds.length; i++) {\n            var current = user.todoListIds[i];\n            Todo memory currentTodo = user.todoMap[current];\n            ids[i] = currentTodo.id;\n            titles[i] = currentTodo.name;\n            complete[i] = currentTodo.completed;\n        }\n        \n        return (ids, titles, complete);\n    }\n    \n    function addTodo(bytes32 _todo, address _account) public {\n        var user = users[_account];\n        Todo memory todo = Todo(user.todoCount, _todo, false);\n        user.todoMap[user.todoCount] = todo;\n        user.todoListIds.push(user.todoCount);\n        user.todoCount ++;\n    }\n    \n    function toggleComplete(address _account, uint _id) public payable {\n         var user = users[_account];\n         \n        if (user.todoMap[_id].completed) {\n                user.todoMap[_id].completed = false;\n            } else {\n                user.todoMap[_id].completed = true;\n            }\n        }\n            \n    function deleteTodo (address _account, uint _id) public payable {\n        var user = users[_account];\n        user.todoListIds[_id] = user.todoListIds[user.todoListIds.length-1];\n        user.todoListIds.length--;\n    }\n\n}\n",
  "sourcePath": "/Users/m_656455/projects/react_truffle_starter/src/ethereum/contracts/TodoList.sol",
  "compiler": {
    "name": "solc",
    "version": "0.4.18+commit.9cf6e910.Emscripten.clang"
  },
  "schemaVersion": "1.0.1",
  "updatedAt": "2018-01-09T21:10:21.224Z"
}