{
  "contractName": "TodoList",
  "abi": [
    {
      "constant": false,
      "inputs": [
        {
          "name": "_itemName",
          "type": "bytes32"
        }
      ],
      "name": "createItem",
      "outputs": [],
      "payable": true,
      "stateMutability": "payable",
      "type": "function"
    },
    {
      "constant": true,
      "inputs": [],
      "name": "getAllItems",
      "outputs": [
        {
          "name": "",
          "type": "uint256[]"
        },
        {
          "name": "",
          "type": "bytes32[]"
        },
        {
          "name": "",
          "type": "bool[]"
        }
      ],
      "payable": false,
      "stateMutability": "view",
      "type": "function"
    },
    {
      "constant": false,
      "inputs": [
        {
          "name": "id",
          "type": "uint256"
        }
      ],
      "name": "markComplete",
      "outputs": [],
      "payable": true,
      "stateMutability": "payable",
      "type": "function"
    },
    {
      "constant": true,
      "inputs": [],
      "name": "numberOfItems",
      "outputs": [
        {
          "name": "",
          "type": "uint256"
        }
      ],
      "payable": false,
      "stateMutability": "view",
      "type": "function"
    }
  ],
  "bytecode": "0x606060405260008055341561001357600080fd5b6104b2806100226000396000f300606060405260043610610062576000357c0100000000000000000000000000000000000000000000000000000000900463ffffffff168063035598fb146100675780634ba1d6aa1461008357806367067ed61461017d578063842296d414610195575b600080fd5b6100816004808035600019169060200190919050506101be565b005b341561008e57600080fd5b61009661024f565b60405180806020018060200180602001848103845287818151815260200191508051906020019060200280838360005b838110156100e15780820151818401526020810190506100c6565b50505050905001848103835286818151815260200191508051906020019060200280838360005b83811015610123578082015181840152602081019050610108565b50505050905001848103825285818151815260200191508051906020019060200280838360005b8381101561016557808201518184015260208101905061014a565b50505050905001965050505050505060405180910390f35b61019360048080359060200190919050506103ec565b005b34156101a057600080fd5b6101a861041d565b6040518082815260200191505060405180910390f35b6101c6610423565b606060405190810160405280600054815260200183600019168152602001600015158152509050806001600080548152602001908152602001600020600082015181600001556020820151816001019060001916905560408201518160020160006101000a81548160ff0219169083151502179055509050506001600054016000819055505050565b61025761044a565b61025f61045e565b610267610472565b61026f61044a565b61027761045e565b61027f610472565b6000610289610423565b6000546040518059106102995750595b908082528060200260200182016040525094506000546040518059106102bc5750595b908082528060200260200182016040525093506000546040518059106102df5750595b90808252806020026020018201604052509250600091505b6000548210156103d9576001600083815260200190815260200160002060606040519081016040529081600082015481526020016001820154600019166000191681526020016002820160009054906101000a900460ff16151515158152505090508060000151858381518110151561036c57fe5b90602001906020020181815250508060200151848381518110151561038d57fe5b906020019060200201906000191690816000191681525050806040015183838151811015156103b857fe5b906020019060200201901515908115158152505081806001019250506102f7565b8484849750975097505050505050909192565b600180600083815260200190815260200160002060020160006101000a81548160ff02191690831515021790555050565b60005481565b60606040519081016040528060008152602001600080191681526020016000151581525090565b602060405190810160405280600081525090565b602060405190810160405280600081525090565b6020604051908101604052806000815250905600a165627a7a723058208892d071d05ce693893504332fa4e1792f7eac3301bbffa0f2dd60b0d7b72f9f0029",
  "source": "pragma solidity ^0.4.17;\n\ncontract TodoList {\n    \n    struct Item {\n        uint id;\n        bytes32 name;\n        bool completed;\n    }\n    \n    uint public numberOfItems = 0;\n    mapping(uint => Item) itemContainer;\n    \n    function createItem(bytes32 _itemName) public payable {\n        Item memory newItem = Item(numberOfItems, _itemName, false);\n        itemContainer[numberOfItems] = newItem;\n        numberOfItems = numberOfItems + 1;\n    }\n    \n    function getAllItems() public view returns(uint[], bytes32[], bool[]) {\n        uint[] memory ids = new uint[](numberOfItems);\n        bytes32[] memory titles = new bytes32[](numberOfItems);\n        bool[] memory complete = new bool[](numberOfItems);\n        \n        for (uint i = 0; i < numberOfItems; i++) {\n            Item memory currentItem = itemContainer[i];\n            ids[i] = currentItem.id;\n            titles[i] = currentItem.name;\n            complete[i] = currentItem.completed;\n            \n        }\n        return (ids, titles, complete);\n    }\n       \n    function markComplete(uint id) public payable {\n        itemContainer[id].completed = true;\n    }\n    \n}",
  "sourcePath": "/Users/m_656455/projects/react_truffle_starter/src/ethereum/contracts/TodoList.sol",
  "compiler": {
    "name": "solc",
    "version": "0.4.18+commit.9cf6e910.Emscripten.clang"
  },
  "schemaVersion": "1.0.1",
  "updatedAt": "2017-12-20T16:10:25.431Z"
}