{
  "contractName": "TodoList",
  "abi": [
    {
      "constant": true,
      "inputs": [
        {
          "name": "",
          "type": "uint256"
        }
      ],
      "name": "userAccts",
      "outputs": [
        {
          "name": "",
          "type": "address"
        }
      ],
      "payable": false,
      "stateMutability": "view",
      "type": "function"
    },
    {
      "constant": false,
      "inputs": [
        {
          "name": "_account",
          "type": "address"
        },
        {
          "name": "_id",
          "type": "uint256"
        }
      ],
      "name": "toggleComplete",
      "outputs": [],
      "payable": true,
      "stateMutability": "payable",
      "type": "function"
    },
    {
      "constant": false,
      "inputs": [
        {
          "name": "_account",
          "type": "address"
        },
        {
          "name": "_id",
          "type": "uint256"
        }
      ],
      "name": "deleteTodo",
      "outputs": [],
      "payable": true,
      "stateMutability": "payable",
      "type": "function"
    },
    {
      "constant": false,
      "inputs": [],
      "name": "createAccount",
      "outputs": [],
      "payable": false,
      "stateMutability": "nonpayable",
      "type": "function"
    },
    {
      "constant": false,
      "inputs": [
        {
          "name": "_todo",
          "type": "bytes32"
        },
        {
          "name": "_account",
          "type": "address"
        }
      ],
      "name": "addTodo",
      "outputs": [],
      "payable": false,
      "stateMutability": "nonpayable",
      "type": "function"
    },
    {
      "constant": true,
      "inputs": [
        {
          "name": "_account",
          "type": "address"
        }
      ],
      "name": "getMyData",
      "outputs": [
        {
          "name": "",
          "type": "uint256[]"
        },
        {
          "name": "",
          "type": "bytes32[]"
        },
        {
          "name": "",
          "type": "bool[]"
        }
      ],
      "payable": false,
      "stateMutability": "view",
      "type": "function"
    },
    {
      "constant": true,
      "inputs": [],
      "name": "getAllUsers",
      "outputs": [
        {
          "name": "",
          "type": "address[]"
        }
      ],
      "payable": false,
      "stateMutability": "view",
      "type": "function"
    }
  ],
  "bytecode": "0x60606040526001600255341561001457600080fd5b610b1d806100236000396000f300606060405260043610610083576000357c0100000000000000000000000000000000000000000000000000000000900463ffffffff1680630ab2bb13146100885780630bb545f6146100eb5780632470eb2c146101225780639dca362f146101595780639e5d06c11461016e578063e1af6264146101b4578063e2842d79146102d2575b600080fd5b341561009357600080fd5b6100a9600480803590602001909190505061033c565b604051808273ffffffffffffffffffffffffffffffffffffffff1673ffffffffffffffffffffffffffffffffffffffff16815260200191505060405180910390f35b610120600480803573ffffffffffffffffffffffffffffffffffffffff1690602001909190803590602001909190505061037b565b005b610157600480803573ffffffffffffffffffffffffffffffffffffffff16906020019091908035906020019091905050610455565b005b341561016457600080fd5b61016c6104fb565b005b341561017957600080fd5b6101b260048080356000191690602001909190803573ffffffffffffffffffffffffffffffffffffffff1690602001909190505061061a565b005b34156101bf57600080fd5b6101eb600480803573ffffffffffffffffffffffffffffffffffffffff1690602001909190505061072d565b60405180806020018060200180602001848103845287818151815260200191508051906020019060200280838360005b8381101561023657808201518184015260208101905061021b565b50505050905001848103835286818151815260200191508051906020019060200280838360005b8381101561027857808201518184015260208101905061025d565b50505050905001848103825285818151815260200191508051906020019060200280838360005b838110156102ba57808201518184015260208101905061029f565b50505050905001965050505050505060405180910390f35b34156102dd57600080fd5b6102e561093d565b6040518080602001828103825283818151815260200191508051906020019060200280838360005b8381101561032857808201518184015260208101905061030d565b505050509050019250505060405180910390f35b60018181548110151561034b57fe5b90600052602060002090016000915054906101000a900473ffffffffffffffffffffffffffffffffffffffff1681565b60008060008473ffffffffffffffffffffffffffffffffffffffff1673ffffffffffffffffffffffffffffffffffffffff168152602001908152602001600020905080600301600083815260200190815260200160002060020160009054906101000a900460ff161561041e57600081600301600084815260200190815260200160002060020160006101000a81548160ff021916908315150217905550610450565b600181600301600084815260200190815260200160002060020160006101000a81548160ff0219169083151502179055505b505050565b60008060008473ffffffffffffffffffffffffffffffffffffffff1673ffffffffffffffffffffffffffffffffffffffff16815260200190815260200160002090508060040160018260040180549050038154811015156104b257fe5b90600052602060002090015481600401838154811015156104cf57fe5b906000526020600020900181905550806004018054809190600190036104f591906109d1565b50505050565b6000806000803373ffffffffffffffffffffffffffffffffffffffff1673ffffffffffffffffffffffffffffffffffffffff1681526020019081526020016000206001015414151561054c57610617565b6000803373ffffffffffffffffffffffffffffffffffffffff1673ffffffffffffffffffffffffffffffffffffffff1681526020019081526020016000209050600081600201819055506002548160010181905550600260008154809291906001019190505550600180548060010182816105c791906109fd565b9160005260206000209001600033909190916101000a81548173ffffffffffffffffffffffffffffffffffffffff021916908373ffffffffffffffffffffffffffffffffffffffff160217905550505b50565b6000610624610a29565b6000808473ffffffffffffffffffffffffffffffffffffffff1673ffffffffffffffffffffffffffffffffffffffff168152602001908152602001600020915060606040519081016040528083600201548152602001856000191681526020016000151581525090508082600301600084600201548152602001908152602001600020600082015181600001556020820151816001019060001916905560408201518160020160006101000a81548160ff0219169083151502179055509050508160040180548060010182816106fa9190610a50565b91600052602060002090016000846002015490919091505550816002016000815480929190600101919050555050505050565b610735610a7c565b61073d610a90565b610745610aa4565b600080610750610a7c565b610758610aa4565b610760610a90565b60008061076b610a29565b6000808d73ffffffffffffffffffffffffffffffffffffffff1673ffffffffffffffffffffffffffffffffffffffff168152602001908152602001600020975087600401805490509650866040518059106107c35750595b90808252806020026020018201604052509550866040518059106107e45750595b90808252806020026020018201604052509450866040518059106108055750595b90808252806020026020018201604052509350600092505b876004018054905083101561092557876004018381548110151561083d57fe5b906000526020600020900154915087600301600083815260200190815260200160002060606040519081016040529081600082015481526020016001820154600019166000191681526020016002820160009054906101000a900460ff1615151515815250509050806000015186848151811015156108b857fe5b9060200190602002018181525050806020015184848151811015156108d957fe5b9060200190602002019060001916908160001916815250508060400151858481518110151561090457fe5b9060200190602002019015159081151581525050828060010193505061081d565b8584869a509a509a5050505050505050509193909250565b610945610ab8565b60018054806020026020016040519081016040528092919081815260200182805480156109c757602002820191906000526020600020905b8160009054906101000a900473ffffffffffffffffffffffffffffffffffffffff1673ffffffffffffffffffffffffffffffffffffffff168152602001906001019080831161097d575b5050505050905090565b8154818355818115116109f8578183600052602060002091820191016109f79190610acc565b5b505050565b815481835581811511610a2457818360005260206000209182019101610a239190610acc565b5b505050565b60606040519081016040528060008152602001600080191681526020016000151581525090565b815481835581811511610a7757818360005260206000209182019101610a769190610acc565b5b505050565b602060405190810160405280600081525090565b602060405190810160405280600081525090565b602060405190810160405280600081525090565b602060405190810160405280600081525090565b610aee91905b80821115610aea576000816000905550600101610ad2565b5090565b905600a165627a7a72305820be03457cb70548f56ee9e9bc179146e82245b79bc0000a613bc63eb440f627e00029",
  "source": "pragma solidity ^0.4.17;\n\n\ncontract TodoList {\n     struct Todo {\n        uint id;\n        bytes32 name;\n        bool completed;\n    }\n    \n    struct User {\n        string name;\n        uint id;\n        uint todoCount;\n        mapping(uint => Todo) todoMap;\n        uint[] todoListIds;\n    }\n\n    mapping (address => User) users;\n    address[] public userAccts;\n    uint count = 1;\n    \n    //note: setUser must be called before adding todos\n    function createAccount() public {\n        if (users[msg.sender].id != 0) {\n            return; //if already set, don't set store again\n        }\n        var user = users[msg.sender];\n        user.todoCount = 0; //keep track of todos for each user\n        user.id = count;\n        count ++;\n        userAccts.push(msg.sender);\n        return ;\n    }\n    \n    function getAllUsers() view public returns (address[]) {\n        return userAccts;\n    }\n    \n    //returns user name/id and all todos associated with you account\n    function getMyData(address _account) view public returns (uint[], bytes32[], bool[]) {\n        var user = users[_account];\n        var lengthOfTodoList = user.todoListIds.length;\n        uint[] memory ids = new uint[](lengthOfTodoList);\n        bool[] memory complete = new bool[](lengthOfTodoList);\n        bytes32[] memory titles = new bytes32[](lengthOfTodoList);\n        \n        for (uint i = 0; i < user.todoListIds.length; i++) {\n            var current = user.todoListIds[i];\n            Todo memory currentTodo = user.todoMap[current];\n            ids[i] = currentTodo.id;\n            titles[i] = currentTodo.name;\n            complete[i] = currentTodo.completed;\n        }\n        \n        return (ids, titles, complete);\n    }\n    \n    function addTodo(bytes32 _todo, address _account) public {\n        var user = users[_account];\n        Todo memory todo = Todo(user.todoCount, _todo, false);\n        user.todoMap[user.todoCount] = todo;\n        user.todoListIds.push(user.todoCount);\n        user.todoCount ++;\n    }\n    \n    function toggleComplete(address _account, uint _id) public payable {\n         var user = users[_account];\n         \n        if (user.todoMap[_id].completed) {\n                user.todoMap[_id].completed = false;\n            } else {\n                user.todoMap[_id].completed = true;\n            }\n        }\n            \n    function deleteTodo(address _account, uint _id) public payable {\n        var user = users[_account];\n        user.todoListIds[_id] = user.todoListIds[user.todoListIds.length-1];\n        user.todoListIds.length--;\n    }\n\n}\n",
  "sourcePath": "/Users/m_655507/Documents/Projects/tests/react_ethereum/src/ethereum/contracts/TodoList.sol",
  "compiler": {
    "name": "solc",
    "version": "0.4.18+commit.9cf6e910.Emscripten.clang"
  },
  "schemaVersion": "1.0.1",
  "updatedAt": "2018-01-11T22:24:43.494Z"
}